:100000000C9434000C943E000C943E000C943E0082
:100010000C943E000C943E000C943E000C943E0068
:100020000C943E000C943E000C943E000C943E0058
:100030000C943E000C943E000C943E000C943E0048
:100040000C943E000C943E000C943E000C943E0038
:100050000C943E000C943E000C943E000C943E0028
:100060000C943E000C943E0011241FBECFEFD8E04C
:10007000DEBFCDBF0E9440000C945C000C940000D9
:100080008AB1836E8AB98BB18C618BB9259A29B1FB
:1000900099B189B1807193FF0BC0811102C022FF19
:1000A00009C02D9A29B199B189B1807193FDF5CF1D
:0C00B0008823A9F32D98EBCFF894FFCF24
:00000001FF
