:100000000C9434000C9449000C9449000C94490061
:100010000C9449000C9449000C9449000C9449003C
:100020000C9449000C9449000C9449000C9449002C
:100030000C9449000C9449000C9449000C9449001C
:100040000C9449000C9449000C9449000C9449000C
:100050000C9449000C9449000C9449000C944900FC
:100060000C9449000C94490011241FBECFEFD8E036
:10007000DEBFCDBF11E0A0E0B1E0E8E7F2E002C0F2
:1000800005900D92AA30B107D9F70E94E4000C94B4
:100090003A010C940000299A85ED8A95F1F7000049
:1000A0002998089595B1937C95B984FD2A9A85FD88
:1000B0002B9A86FD2C9A87FD2D9A299A85ED8A9593
:1000C000F1F7000029980895CF93C82F0E9452009D
:1000D0008C2F8295807F0E9452002D98CF91089599
:1000E00028980C946400289A0C946400289883E360
:1000F0000E946400289882E30E946400289888E2A5
:100100000E94640028988CE00E946400289886E091
:100110000E946400289881E00E9464008FED9EE2B6
:100120000197F1F700C000000895289881E00E942F
:1001300064008FED9EE20197F1F700C00000089582
:10014000CF93DF93EC018881882339F02196289A98
:100150000E94640089918111FACFDF91CF910895B7
:100160000F931F93CF93DF93CDB7DEB728970FB6CA
:10017000F894DEBF0FBECDBF1A821982FE013396FE
:1001800026E0DF011D922A95E9F74AE0BE016F5F84
:100190007F4F0E9405018981882359F08E010E5FEF
:1001A0001F4F289A0E946400F80181918F018111EC
:1001B000F8CF28960FB6F894DEBF0FBECDBFDF9103
:1001C000CF911F910F9108958FEF84B90E9476000F
:1001D000289881E00E9464008FED9EE20197F1F77C
:1001E00000C00000C1E0D1E088E4289A0E946400C9
:1001F00089918111FACF9FEF2BE48DE1915020403E
:100200008040E1F700C00000F6CFBB274A3031F450
:10021000992322F4BDE2909581959F4F0C94110192
:10022000BB27FB015527AA27880F991FAA1FA417D0
:1002300010F0A41B83955051B9F7A05DAA3308F0C4
:10024000A95DA193009779F7B111B1931192CB01F8
:100250000C942A01DC01FC01672F71917723E1F7EF
:10026000329704C07C916D9370836291AE17BF0783
:08027000C8F30895F894FFCFD4
:0A02780048796465726162616400F8
:00000001FF
