:100000000C9434000C9449000C9449000C94490061
:100010000C9449000C9449000C9449000C9449003C
:100020000C9449000C9449000C9449000C9449002C
:100030000C9449000C9449000C9449000C9449001C
:100040000C9449000C9449000C9449000C9449000C
:100050000C9449000C9449000C9449000C944900FC
:100060000C9449000C94490011241FBECFEFD8E036
:10007000DEBFCDBF11E0A0E0B1E0E2EFF2E002C0F0
:1000800005900D92A436B107D9F70E94E4000C94B4
:1000900077010C940000299A85ED8A95F1F700000C
:1000A0002998089595B1937C95B984FD2A9A85FD88
:1000B0002B9A86FD2C9A87FD2D9A299A85ED8A9593
:1000C000F1F7000029980895CF93C82F0E9452009D
:1000D0008C2F8295807F0E9452002D98CF91089599
:1000E00028980C946400289A0C946400289883E360
:1000F0000E946400289882E30E946400289888E2A5
:100100000E94640028988CE00E946400289886E091
:100110000E946400289881E00E9464008FED9EE2B6
:100120000197F1F700C000000895289881E00E942F
:1001300064008FED9EE20197F1F700C00000089582
:10014000CF93DF93EC018881882339F02196289A98
:100150000E94640089918111FACFDF91CF910895B7
:100160000F931F93CF93DF93CDB7DEB728970FB6CA
:10017000F894DEBF0FBECDBF1A821982FE013396FE
:1001800026E0DF011D922A95E9F74AE0BE016F5F84
:100190007F4F0E9442018981882359F08E010E5FB2
:1001A0001F4F289A0E946400F80181918F018111EC
:1001B000F8CF28960FB6F894DEBF0FBECDBFDF9103
:1001C000CF911F910F910895CF93DF93CDB7DEB7F5
:1001D000C456D1090FB6F894DEBF0FBECDBF84E67A
:1001E000E0E0F1E0DE01119601900D928A95E1F7D1
:1001F0008FEF84B90E947600289881E00E94640005
:100200008FED9EE20197F1F700C00000FE013296EB
:100210006F01E12CF12C289880E80E946400F6011F
:1002200031978081882349F08601289A0E946400D2
:10023000F80181918F018111F8CF289880EC0E94FC
:100240006400C7010E94B000FFEF23ED80E3F1508E
:1002500020408040E1F700C00000289881E00E9423
:100260006400EFEDFEE23197F1F700C00000FFEF10
:10027000EF1AFF0A2AE0C20ED11C8AE0E816F10448
:1002800051F6C4CFBB274A3031F4992322F4BDE2A2
:10029000909581959F4F0C944E01BB27FB015527EC
:1002A000AA27880F991FAA1FA41710F0A41B8395D3
:1002B0005051B9F7A05DAA3308F0A95DA19300974A
:1002C00079F7B111B1931192CB010C946701DC0164
:1002D000FC01672F71917723E1F7329704C07C917D
:1002E0006D9370836291AE17BF07C8F30895F894B9
:0202F000FFCF3E
:1002F2005A45524F0000000000004F4E45000000DA
:100302000000000054574F00000000000000544855
:100312005245450000000000464F555200000000C3
:1003220000004649564500000000000053495800AD
:10033200000000000000534556454E00000000003A
:10034200454947485400000000004E494E45000010
:0403520000000000A7
:00000001FF
